:020000040000FA
:1000000016EF00F0EA6A0A0EE96EEF500DE0060EF8
:10001000016E006A002EFED7012EFBD77B0E006E0C
:10002000002EFED7EF2EF3D740EF00F0F86AD09EF7
:10003000EA6AE96AC150C00B0309C16E070EB46ECB
:10004000B450A19C820E056E0F0E066E940E076EC4
:100050000F0E086E07C0E9FF08C0EAFFEF6A05C08F
:10006000E9FF06C0EAFFEF6A05C0E9FF06C0EAFF44
:10007000EF50010AEF6E020E096EFA0E0A6EC2D739
:08008000092EFBD7F1D70300A4
:020000040030CA
:0E00000000C20F1E008781000FC00FE00F40EE
:00000001FF
;PIC18F4520
